{
  "_format": "hh-sol-artifact-1",
  "contractName": "Election",
  "sourceName": "contracts/Election.sol",
  "abi": [
    {
      "inputs": [],
      "stateMutability": "nonpayable",
      "type": "constructor"
    },
    {
      "anonymous": false,
      "inputs": [],
      "name": "AllTrusteesAgreed",
      "type": "event"
    },
    {
      "anonymous": false,
      "inputs": [
        {
          "indexed": false,
          "internalType": "uint256",
          "name": "id",
          "type": "uint256"
        },
        {
          "indexed": false,
          "internalType": "string",
          "name": "name",
          "type": "string"
        }
      ],
      "name": "CandidateAdded",
      "type": "event"
    },
    {
      "anonymous": false,
      "inputs": [
        {
          "indexed": true,
          "internalType": "uint256",
          "name": "candidateId",
          "type": "uint256"
        },
        {
          "indexed": false,
          "internalType": "uint256[2]",
          "name": "C1_total",
          "type": "uint256[2]"
        },
        {
          "indexed": false,
          "internalType": "uint256[2]",
          "name": "C2_total",
          "type": "uint256[2]"
        }
      ],
      "name": "CipherTotalPublished",
      "type": "event"
    },
    {
      "anonymous": false,
      "inputs": [
        {
          "indexed": false,
          "internalType": "string",
          "name": "electionId",
          "type": "string"
        },
        {
          "indexed": false,
          "internalType": "string",
          "name": "name",
          "type": "string"
        }
      ],
      "name": "ElectionCreated",
      "type": "event"
    },
    {
      "anonymous": false,
      "inputs": [
        {
          "indexed": false,
          "internalType": "bytes",
          "name": "epk",
          "type": "bytes"
        }
      ],
      "name": "EpkPublished",
      "type": "event"
    },
    {
      "anonymous": false,
      "inputs": [
        {
          "indexed": false,
          "internalType": "bytes32",
          "name": "hashOnChain",
          "type": "bytes32"
        }
      ],
      "name": "HashOnChainPublished",
      "type": "event"
    },
    {
      "anonymous": false,
      "inputs": [
        {
          "indexed": false,
          "internalType": "bytes32",
          "name": "root",
          "type": "bytes32"
        }
      ],
      "name": "MerkleRootUpdated",
      "type": "event"
    },
    {
      "anonymous": false,
      "inputs": [
        {
          "indexed": false,
          "internalType": "address",
          "name": "trustee",
          "type": "address"
        }
      ],
      "name": "PartialDecryptionFailed",
      "type": "event"
    },
    {
      "anonymous": false,
      "inputs": [
        {
          "indexed": true,
          "internalType": "address",
          "name": "trustee",
          "type": "address"
        }
      ],
      "name": "PartialDecryptionSubmitted",
      "type": "event"
    },
    {
      "anonymous": false,
      "inputs": [
        {
          "indexed": true,
          "internalType": "address",
          "name": "trustee",
          "type": "address"
        }
      ],
      "name": "PartialDecryptionVerified",
      "type": "event"
    },
    {
      "anonymous": false,
      "inputs": [
        {
          "indexed": false,
          "internalType": "bytes",
          "name": "C_total",
          "type": "bytes"
        },
        {
          "indexed": false,
          "internalType": "bytes32",
          "name": "proofHash",
          "type": "bytes32"
        }
      ],
      "name": "TallySubmitted",
      "type": "event"
    },
    {
      "anonymous": false,
      "inputs": [
        {
          "indexed": true,
          "internalType": "address",
          "name": "trustee",
          "type": "address"
        }
      ],
      "name": "TrusteeRegistered",
      "type": "event"
    },
    {
      "anonymous": false,
      "inputs": [
        {
          "indexed": true,
          "internalType": "bytes32",
          "name": "nullifier",
          "type": "bytes32"
        },
        {
          "indexed": true,
          "internalType": "bytes32",
          "name": "hashCipher",
          "type": "bytes32"
        },
        {
          "indexed": false,
          "internalType": "uint256",
          "name": "timestamp",
          "type": "uint256"
        }
      ],
      "name": "VotePublished",
      "type": "event"
    },
    {
      "inputs": [
        {
          "internalType": "string",
          "name": "_name",
          "type": "string"
        }
      ],
      "name": "addCandidate",
      "outputs": [],
      "stateMutability": "nonpayable",
      "type": "function"
    },
    {
      "inputs": [],
      "name": "admin",
      "outputs": [
        {
          "internalType": "address",
          "name": "",
          "type": "address"
        }
      ],
      "stateMutability": "view",
      "type": "function"
    },
    {
      "inputs": [],
      "name": "aggregator",
      "outputs": [
        {
          "internalType": "address",
          "name": "",
          "type": "address"
        }
      ],
      "stateMutability": "view",
      "type": "function"
    },
    {
      "inputs": [
        {
          "internalType": "uint256",
          "name": "",
          "type": "uint256"
        }
      ],
      "name": "candidates",
      "outputs": [
        {
          "internalType": "uint256",
          "name": "id",
          "type": "uint256"
        },
        {
          "internalType": "string",
          "name": "name",
          "type": "string"
        },
        {
          "internalType": "uint256",
          "name": "voteCount",
          "type": "uint256"
        }
      ],
      "stateMutability": "view",
      "type": "function"
    },
    {
      "inputs": [],
      "name": "epk",
      "outputs": [
        {
          "internalType": "bytes",
          "name": "",
          "type": "bytes"
        }
      ],
      "stateMutability": "view",
      "type": "function"
    },
    {
      "inputs": [],
      "name": "finalCipher",
      "outputs": [
        {
          "internalType": "bytes",
          "name": "",
          "type": "bytes"
        }
      ],
      "stateMutability": "view",
      "type": "function"
    },
    {
      "inputs": [],
      "name": "getCandidateCount",
      "outputs": [
        {
          "internalType": "uint256",
          "name": "",
          "type": "uint256"
        }
      ],
      "stateMutability": "view",
      "type": "function"
    },
    {
      "inputs": [],
      "name": "getNullifierCount",
      "outputs": [
        {
          "internalType": "uint256",
          "name": "",
          "type": "uint256"
        }
      ],
      "stateMutability": "view",
      "type": "function"
    },
    {
      "inputs": [],
      "name": "hashOnChain",
      "outputs": [
        {
          "internalType": "bytes32",
          "name": "",
          "type": "bytes32"
        }
      ],
      "stateMutability": "view",
      "type": "function"
    },
    {
      "inputs": [],
      "name": "info",
      "outputs": [
        {
          "internalType": "string",
          "name": "electionId",
          "type": "string"
        },
        {
          "internalType": "string",
          "name": "name",
          "type": "string"
        },
        {
          "internalType": "string",
          "name": "startDate",
          "type": "string"
        },
        {
          "internalType": "string",
          "name": "endDate",
          "type": "string"
        },
        {
          "internalType": "string",
          "name": "status",
          "type": "string"
        },
        {
          "internalType": "bytes32",
          "name": "merkleRoot",
          "type": "bytes32"
        }
      ],
      "stateMutability": "view",
      "type": "function"
    },
    {
      "inputs": [
        {
          "internalType": "bytes32",
          "name": "",
          "type": "bytes32"
        }
      ],
      "name": "isNullifierUsed",
      "outputs": [
        {
          "internalType": "bool",
          "name": "",
          "type": "bool"
        }
      ],
      "stateMutability": "view",
      "type": "function"
    },
    {
      "inputs": [
        {
          "internalType": "address",
          "name": "",
          "type": "address"
        }
      ],
      "name": "isTrustee",
      "outputs": [
        {
          "internalType": "bool",
          "name": "",
          "type": "bool"
        }
      ],
      "stateMutability": "view",
      "type": "function"
    },
    {
      "inputs": [
        {
          "internalType": "address",
          "name": "",
          "type": "address"
        }
      ],
      "name": "lastVerifyPassed",
      "outputs": [
        {
          "internalType": "bool",
          "name": "",
          "type": "bool"
        }
      ],
      "stateMutability": "view",
      "type": "function"
    },
    {
      "inputs": [],
      "name": "minRequired",
      "outputs": [
        {
          "internalType": "uint256",
          "name": "",
          "type": "uint256"
        }
      ],
      "stateMutability": "view",
      "type": "function"
    },
    {
      "inputs": [
        {
          "internalType": "uint256",
          "name": "",
          "type": "uint256"
        }
      ],
      "name": "nullifiers",
      "outputs": [
        {
          "internalType": "bytes32",
          "name": "",
          "type": "bytes32"
        }
      ],
      "stateMutability": "view",
      "type": "function"
    },
    {
      "inputs": [
        {
          "internalType": "address",
          "name": "",
          "type": "address"
        }
      ],
      "name": "partialDecryptions",
      "outputs": [
        {
          "internalType": "uint256",
          "name": "C1x",
          "type": "uint256"
        },
        {
          "internalType": "uint256",
          "name": "C1y",
          "type": "uint256"
        },
        {
          "internalType": "uint256",
          "name": "Dix",
          "type": "uint256"
        },
        {
          "internalType": "uint256",
          "name": "Diy",
          "type": "uint256"
        },
        {
          "internalType": "uint256",
          "name": "PKx",
          "type": "uint256"
        },
        {
          "internalType": "uint256",
          "name": "PKy",
          "type": "uint256"
        },
        {
          "internalType": "bool",
          "name": "verified",
          "type": "bool"
        }
      ],
      "stateMutability": "view",
      "type": "function"
    },
    {
      "inputs": [
        {
          "internalType": "uint256[2][]",
          "name": "C1_list",
          "type": "uint256[2][]"
        },
        {
          "internalType": "uint256[2][]",
          "name": "C2_list",
          "type": "uint256[2][]"
        }
      ],
      "name": "publishAllCipherTotals",
      "outputs": [],
      "stateMutability": "nonpayable",
      "type": "function"
    },
    {
      "inputs": [
        {
          "internalType": "bytes",
          "name": "_epk",
          "type": "bytes"
        }
      ],
      "name": "publishEpk",
      "outputs": [],
      "stateMutability": "nonpayable",
      "type": "function"
    },
    {
      "inputs": [
        {
          "internalType": "bytes32",
          "name": "_hashOnChain",
          "type": "bytes32"
        }
      ],
      "name": "publishHashOnChain",
      "outputs": [],
      "stateMutability": "nonpayable",
      "type": "function"
    },
    {
      "inputs": [
        {
          "internalType": "uint256[6]",
          "name": "points",
          "type": "uint256[6]"
        }
      ],
      "name": "publishPartialDecryption",
      "outputs": [],
      "stateMutability": "nonpayable",
      "type": "function"
    },
    {
      "inputs": [
        {
          "internalType": "address[3]",
          "name": "_trustees",
          "type": "address[3]"
        }
      ],
      "name": "registerTrustees",
      "outputs": [],
      "stateMutability": "nonpayable",
      "type": "function"
    },
    {
      "inputs": [
        {
          "internalType": "address",
          "name": "_aggregator",
          "type": "address"
        }
      ],
      "name": "setAggregator",
      "outputs": [],
      "stateMutability": "nonpayable",
      "type": "function"
    },
    {
      "inputs": [
        {
          "internalType": "string",
          "name": "_id",
          "type": "string"
        },
        {
          "internalType": "string",
          "name": "_name",
          "type": "string"
        },
        {
          "internalType": "string",
          "name": "_start",
          "type": "string"
        },
        {
          "internalType": "string",
          "name": "_end",
          "type": "string"
        }
      ],
      "name": "setElectionInfo",
      "outputs": [],
      "stateMutability": "nonpayable",
      "type": "function"
    },
    {
      "inputs": [
        {
          "internalType": "bytes32",
          "name": "_root",
          "type": "bytes32"
        }
      ],
      "name": "setMerkleRoot",
      "outputs": [],
      "stateMutability": "nonpayable",
      "type": "function"
    },
    {
      "inputs": [
        {
          "internalType": "bytes",
          "name": "_C_total",
          "type": "bytes"
        },
        {
          "internalType": "bytes32",
          "name": "_proofHash",
          "type": "bytes32"
        }
      ],
      "name": "submitTally",
      "outputs": [],
      "stateMutability": "nonpayable",
      "type": "function"
    },
    {
      "inputs": [
        {
          "internalType": "bytes32",
          "name": "_nullifier",
          "type": "bytes32"
        },
        {
          "internalType": "bytes32",
          "name": "_hashCipher",
          "type": "bytes32"
        }
      ],
      "name": "submitVote",
      "outputs": [],
      "stateMutability": "nonpayable",
      "type": "function"
    },
    {
      "inputs": [],
      "name": "tallyProofHash",
      "outputs": [
        {
          "internalType": "bytes32",
          "name": "",
          "type": "bytes32"
        }
      ],
      "stateMutability": "view",
      "type": "function"
    },
    {
      "inputs": [],
      "name": "thresholdCount",
      "outputs": [
        {
          "internalType": "uint256",
          "name": "",
          "type": "uint256"
        }
      ],
      "stateMutability": "view",
      "type": "function"
    },
    {
      "inputs": [
        {
          "internalType": "uint256[2]",
          "name": "pA",
          "type": "uint256[2]"
        },
        {
          "internalType": "uint256[2][2]",
          "name": "pB",
          "type": "uint256[2][2]"
        },
        {
          "internalType": "uint256[2]",
          "name": "pC",
          "type": "uint256[2]"
        },
        {
          "internalType": "uint256[1]",
          "name": "pubSignals",
          "type": "uint256[1]"
        }
      ],
      "name": "verifyPartialProof",
      "outputs": [
        {
          "internalType": "bool",
          "name": "",
          "type": "bool"
        }
      ],
      "stateMutability": "nonpayable",
      "type": "function"
    },
    {
      "inputs": [
        {
          "internalType": "uint256[2]",
          "name": "_pA",
          "type": "uint256[2]"
        },
        {
          "internalType": "uint256[2][2]",
          "name": "_pB",
          "type": "uint256[2][2]"
        },
        {
          "internalType": "uint256[2]",
          "name": "_pC",
          "type": "uint256[2]"
        },
        {
          "internalType": "uint256[1]",
          "name": "_pubSignals",
          "type": "uint256[1]"
        }
      ],
      "name": "verifyProof",
      "outputs": [
        {
          "internalType": "bool",
          "name": "",
          "type": "bool"
        }
      ],
      "stateMutability": "view",
      "type": "function"
    },
    {
      "inputs": [
        {
          "internalType": "bytes32",
          "name": "",
          "type": "bytes32"
        }
      ],
      "name": "votes",
      "outputs": [
        {
          "internalType": "bytes32",
          "name": "nullifier",
          "type": "bytes32"
        },
        {
          "internalType": "bytes32",
          "name": "hashCipher",
          "type": "bytes32"
        },
        {
          "internalType": "uint256",
          "name": "timestamp",
          "type": "uint256"
        }
      ],
      "stateMutability": "view",
      "type": "function"
    }
  ],
  "bytecode": "0x608060405234801561001057600080fd5b50336000806101000a81548173ffffffffffffffffffffffffffffffffffffffff021916908373ffffffffffffffffffffffffffffffffffffffff160217905550613f69806100606000396000f3fe608060405234801561001057600080fd5b50600436106101e55760003560e01c80633fe0b6fc1161010f578063b40e987e116100a2578063d21e82ab11610071578063d21e82ab1461058d578063e4475213146105bd578063f851a440146105ed578063f9120af61461060b576101e5565b8063b40e987e14610505578063b415616e14610523578063baacc5bd14610541578063c784cd171461055d576101e5565b80637a553744116100de5780637a553744146104915780637c986e2b146104af5780637cb64759146104cb578063ab989f55146104e7576101e5565b80633fe0b6fc146103f357806343753b4d14610429578063462e91ec1461045957806365a1ccc014610475576101e5565b8063276421e51161018757806330a563471161015657806330a56347146103645780633477ee2e14610382578063368f8513146103b4578063370158ea146103d0576101e5565b8063276421e5146102c857806329a6e55d146102e45780632b38cd96146103145780632fc760ed14610346576101e5565b80631bdf06f7116101c35780631bdf06f71461024057806322dc7b4c1461025c578063245a7bfc1461028c578063251060d6146102aa576101e5565b80630d2ce376146101ea57806310d713ec1461020657806313e26d5814610222575b600080fd5b61020460048036038101906101ff9190612620565b610627565b005b610220600480360381019061021b9190612660565b6107f5565b005b61022a61090b565b60405161023791906126a6565b60405180910390f35b61025a60048036038101906102559190612726565b610910565b005b61027660048036038101906102719190612660565b610a86565b60405161028391906127c2565b60405180910390f35b610294610aa6565b6040516102a1919061281e565b60405180910390f35b6102b2610acc565b6040516102bf91906126a6565b60405180910390f35b6102e260048036038101906102dd919061285b565b610ad2565b005b6102fe60048036038101906102f991906128ee565b610ecb565b60405161030b91906127c2565b60405180910390f35b61032e60048036038101906103299190612660565b611167565b60405161033d93929190612966565b60405180910390f35b61034e611191565b60405161035b919061299d565b60405180910390f35b61036c611197565b60405161037991906126a6565b60405180910390f35b61039c600480360381019061039791906129e4565b6111a4565b6040516103ab93929190612aa1565b60405180910390f35b6103ce60048036038101906103c99190612b01565b611266565b005b6103d8611441565b6040516103ea96959493929190612b2e565b60405180910390f35b61040d60048036038101906104089190612bde565b611713565b6040516104209796959493929190612c0b565b60405180910390f35b610443600480360381019061043e91906128ee565b611762565b60405161045091906127c2565b60405180910390f35b610473600480360381019061046e9190612daa565b611bbe565b005b61048f600480360381019061048a9190612e49565b611d11565b005b610499611e3f565b6040516104a691906126a6565b60405180910390f35b6104c960048036038101906104c49190612ea9565b611e4c565b005b6104e560048036038101906104e09190612660565b611ffb565b005b6104ef6120cd565b6040516104fc9190612fd5565b60405180910390f35b61050d61215b565b60405161051a9190612fd5565b60405180910390f35b61052b6121e9565b604051610538919061299d565b60405180910390f35b61055b60048036038101906105569190612ff7565b6121ef565b005b61057760048036038101906105729190612bde565b6122cc565b60405161058491906127c2565b60405180910390f35b6105a760048036038101906105a291906129e4565b6122ec565b6040516105b4919061299d565b60405180910390f35b6105d760048036038101906105d29190612bde565b612310565b6040516105e491906127c2565b60405180910390f35b6105f5612330565b604051610602919061281e565b60405180910390f35b61062560048036038101906106209190612bde565b612354565b005b7f9651c33eb23976f7c15240e86443dc2ded40546fa9ba457a14abab4090e023b5600160040160405160200161065d9190613147565b60405160208183030381529060405280519060200120146106b3576040517f08c379a00000000000000000000000000000000000000000000000000000000081526004016106aa906131aa565b60405180910390fd5b600b600083815260200190815260200160002060009054906101000a900460ff1615610714576040517f08c379a000000000000000000000000000000000000000000000000000000000815260040161070b90613216565b60405180910390fd5b604051806060016040528083815260200182815260200142815250600960008481526020019081526020016000206000820151816000015560208201518160010155604082015181600201559050506001600b600084815260200190815260200160002060006101000a81548160ff021916908315150217905550600a82908060018154018082558091505060019003906000526020600020016000909190919091505580827f1aa37c29a356ade7de037765d53ea7e706f2278420ed47e644c0af035d6550ba426040516107e991906126a6565b60405180910390a35050565b60008054906101000a900473ffffffffffffffffffffffffffffffffffffffff1673ffffffffffffffffffffffffffffffffffffffff163373ffffffffffffffffffffffffffffffffffffffff1614610883576040517f08c379a000000000000000000000000000000000000000000000000000000000815260040161087a90613282565b60405180910390fd5b6000801b600c54146108ca576040517f08c379a00000000000000000000000000000000000000000000000000000000081526004016108c1906132ee565b60405180910390fd5b80600c819055507f07b087b719c78dd94d9e1c9dcee2dbb117f53d18e36184b3ba0ad48db6fbc22a81604051610900919061299d565b60405180910390a150565b600281565b601360009054906101000a900473ffffffffffffffffffffffffffffffffffffffff1673ffffffffffffffffffffffffffffffffffffffff163373ffffffffffffffffffffffffffffffffffffffff16146109a0576040517f08c379a00000000000000000000000000000000000000000000000000000000081526004016109979061335a565b60405180910390fd5b8181905084849050146109e8576040517f08c379a00000000000000000000000000000000000000000000000000000000081526004016109df906133c6565b60405180910390fd5b60005b84849050811015610a7f57600181610a039190613415565b7f3f43c5f7b17d028526089f9ba4ba863ef2a26802b48f4f85012a3ec93d4bbcd9868684818110610a3757610a36613449565b5b905060400201858585818110610a5057610a4f613449565b5b905060400201604051610a64929190613491565b60405180910390a28080610a77906134ba565b9150506109eb565b5050505050565b600b6020528060005260406000206000915054906101000a900460ff1681565b601360009054906101000a900473ffffffffffffffffffffffffffffffffffffffff1681565b60115481565b601060003373ffffffffffffffffffffffffffffffffffffffff1673ffffffffffffffffffffffffffffffffffffffff16815260200190815260200160002060009054906101000a900460ff16610b5e576040517f08c379a0000000000000000000000000000000000000000000000000000000008152600401610b559061354e565b60405180910390fd5b601260003373ffffffffffffffffffffffffffffffffffffffff1673ffffffffffffffffffffffffffffffffffffffff16815260200190815260200160002060009054906101000a900460ff16610bea576040517f08c379a0000000000000000000000000000000000000000000000000000000008152600401610be1906135ba565b60405180910390fd5b600f60003373ffffffffffffffffffffffffffffffffffffffff1673ffffffffffffffffffffffffffffffffffffffff16815260200190815260200160002060060160009054906101000a900460ff1615610c7a576040517f08c379a0000000000000000000000000000000000000000000000000000000008152600401610c7190613626565b60405180910390fd5b60006040518060e0016040528083600060068110610c9b57610c9a613449565b5b6020020135815260200183600160068110610cb957610cb8613449565b5b6020020135815260200183600260068110610cd757610cd6613449565b5b6020020135815260200183600360068110610cf557610cf4613449565b5b6020020135815260200183600460068110610d1357610d12613449565b5b6020020135815260200183600560068110610d3157610d30613449565b5b6020020135815260200160011515815250905080600f60003373ffffffffffffffffffffffffffffffffffffffff1673ffffffffffffffffffffffffffffffffffffffff168152602001908152602001600020600082015181600001556020820151816001015560408201518160020155606082015181600301556080820151816004015560a0820151816005015560c08201518160060160006101000a81548160ff0219169083151502179055509050506000601260003373ffffffffffffffffffffffffffffffffffffffff1673ffffffffffffffffffffffffffffffffffffffff16815260200190815260200160002060006101000a81548160ff0219169083151502179055506011600081548092919060010191905055503373ffffffffffffffffffffffffffffffffffffffff167f411175972d81e4a9a4614b69e52089c1f126409e78e4459eaf2732803479b84960405160405180910390a2600260115410610ec7577fb5c83c1854b3926d397eff3a576d47f9d1ef613af9b5d8e34fb1f6641428230660405160405180910390a15b5050565b6000601060003373ffffffffffffffffffffffffffffffffffffffff1673ffffffffffffffffffffffffffffffffffffffff16815260200190815260200160002060009054906101000a900460ff16610f59576040517f08c379a0000000000000000000000000000000000000000000000000000000008152600401610f509061354e565b60405180910390fd5b600061107b866002806020026040519081016040528092919082600260200280828437600081840152601f19601f82011690508083019250505050505086600280602002604051908101604052809291906000905b82821015611002578382604002016002806020026040519081016040528092919082600260200280828437600081840152601f19601f82011690508083019250505050505081526020019060010190610fae565b50505050866002806020026040519081016040528092919082600260200280828437600081840152601f19601f820116905080830192505050505050866001806020026040519081016040528092919082600160200280828437600081840152601f19601f820116905080830192505050505050612495565b90508015611123576001601260003373ffffffffffffffffffffffffffffffffffffffff1673ffffffffffffffffffffffffffffffffffffffff16815260200190815260200160002060006101000a81548160ff0219169083151502179055503373ffffffffffffffffffffffffffffffffffffffff167f461f94abfffacf370cd3915fe79cceea6ccd2356cae317fbb3f7f3bae81cfea060405160405180910390a261115b565b7f927295f72e08d9a5955fd9b158ac28cc0a9bc6c057c7171bbca9161241849ea733604051611152919061281e565b60405180910390a15b80915050949350505050565b60096020528060005260406000206000915090508060000154908060010154908060020154905083565b600c5481565b6000600780549050905090565b600781815481106111b457600080fd5b90600052602060002090600302016000915090508060000154908060010180546111dd90613073565b80601f016020809104026020016040519081016040528092919081815260200182805461120990613073565b80156112565780601f1061122b57610100808354040283529160200191611256565b820191906000526020600020905b81548152906001019060200180831161123957829003601f168201915b5050505050908060020154905083565b60008054906101000a900473ffffffffffffffffffffffffffffffffffffffff1673ffffffffffffffffffffffffffffffffffffffff163373ffffffffffffffffffffffffffffffffffffffff16146112f4576040517f08c379a00000000000000000000000000000000000000000000000000000000081526004016112eb90613282565b60405180910390fd5b600060115414611339576040517f08c379a000000000000000000000000000000000000000000000000000000000815260040161133090613692565b60405180910390fd5b60005b600381101561143d5760016010600084846003811061135e5761135d613449565b5b6020020160208101906113719190612bde565b73ffffffffffffffffffffffffffffffffffffffff1673ffffffffffffffffffffffffffffffffffffffff16815260200190815260200160002060006101000a81548160ff0219169083151502179055508181600381106113d5576113d4613449565b5b6020020160208101906113e89190612bde565b73ffffffffffffffffffffffffffffffffffffffff167f85778b4fc65f26951d8cf0de370d55669440118927711dbc86de5ab3904def3160405160405180910390a28080611435906134ba565b91505061133c565b5050565b600180600001805461145290613073565b80601f016020809104026020016040519081016040528092919081815260200182805461147e90613073565b80156114cb5780601f106114a0576101008083540402835291602001916114cb565b820191906000526020600020905b8154815290600101906020018083116114ae57829003601f168201915b5050505050908060010180546114e090613073565b80601f016020809104026020016040519081016040528092919081815260200182805461150c90613073565b80156115595780601f1061152e57610100808354040283529160200191611559565b820191906000526020600020905b81548152906001019060200180831161153c57829003601f168201915b50505050509080600201805461156e90613073565b80601f016020809104026020016040519081016040528092919081815260200182805461159a90613073565b80156115e75780601f106115bc576101008083540402835291602001916115e7565b820191906000526020600020905b8154815290600101906020018083116115ca57829003601f168201915b5050505050908060030180546115fc90613073565b80601f016020809104026020016040519081016040528092919081815260200182805461162890613073565b80156116755780601f1061164a57610100808354040283529160200191611675565b820191906000526020600020905b81548152906001019060200180831161165857829003601f168201915b50505050509080600401805461168a90613073565b80601f01602080910402602001604051908101604052809291908181526020018280546116b690613073565b80156117035780601f106116d857610100808354040283529160200191611703565b820191906000526020600020905b8154815290600101906020018083116116e657829003601f168201915b5050505050908060050154905086565b600f6020528060005260406000206000915090508060000154908060010154908060020154908060030154908060040154908060050154908060060160009054906101000a900460ff16905087565b6000611b8f565b7f30644e72e131a029b85045b68181585d2833e84879b9709143e1f593f0000001811061179a576000805260206000f35b50565b600060405183815284602082015285604082015260408160608360076107d05a03fa9150816117d0576000805260206000f35b825160408201526020830151606082015260408360808360066107d05a03fa915081611800576000805260206000f35b505050505050565b600060808601600087017f2d2bbd05032830e38fbe5b92d97d5308b19d59e04f5a9e3e0b12bfe5781cc41481527f0b6b27a36c650fe495f8e8a74b606e629fbb57ca954fe920cf9793f093fed3f660208201526118ab60008801357f1edd51c662e1c077b99b381d14dbf3a0e0883bd1365f716f15a7fde476d6e1357f0612ebacc2a0f75422c59901603b7063c5862071cb50f9361dbf16b239f9b8378461179d565b833582527f30644e72e131a029b85045b68181585d97816a916871ca8d3c208c16d87cfd4760208501357f30644e72e131a029b85045b68181585d97816a916871ca8d3c208c16d87cfd4703066020830152843560408301526020850135606083015260408501356080830152606085013560a08301527f0fa97dbe05c01604f78e309ff166a3d1ca5a169ad7e4c273978b2d12951b3aa860c08301527f1ce3d36ac75c22ca880a3589453dd56d74ebcd3dc0d02bbd68b34d5d7950ca2960e08301527f08854137860062e4ae212836201a5afcfe3f37123650b07b4ccbbe81528d77b16101008301527f061483df5d4504f9f4c4d0db42fc7ff28dca2e621cedbddef0fc1517ba3608686101208301527f234436eb026880fecd883256f20c9bf04145e8d2851134db03fb0750a0eaae3a6101408301527f0477051796d060fccce2dcb65437ad24c044e0ead79119f3eb26f1ac3ce97b7b610160830152600088015161018083015260206000018801516101a08301527f198e9393920d483a7260bfb731fb5d25f1aa493335a9e71297e485b7aef312c26101c08301527f1800deef121f1e76426a00665e5c4479674322d4f75edadd46debd5cd992f6ed6101e08301527f090689d0585ff075ec9e99ad690c3395bc4b313370b38ef355acdadcd122975b6102008301527f12c85ea5db8c6deb4aab71808dcb408fe3d1e7690c43d37b4ce6cc0166fa7daa610220830152853561024083015260208601356102608301527f198e9393920d483a7260bfb731fb5d25f1aa493335a9e71297e485b7aef312c26102808301527f1800deef121f1e76426a00665e5c4479674322d4f75edadd46debd5cd992f6ed6102a08301527f090689d0585ff075ec9e99ad690c3395bc4b313370b38ef355acdadcd122975b6102c08301527f12c85ea5db8c6deb4aab71808dcb408fe3d1e7690c43d37b4ce6cc0166fa7daa6102e08301526020826103008460086107d05a03fa82518116935050505095945050505050565b6040516103808101604052611ba76000840135611769565b611bb4818486888a611808565b8060005260206000f35b60008054906101000a900473ffffffffffffffffffffffffffffffffffffffff1673ffffffffffffffffffffffffffffffffffffffff163373ffffffffffffffffffffffffffffffffffffffff1614611c4c576040517f08c379a0000000000000000000000000000000000000000000000000000000008152600401611c4390613282565b60405180910390fd5b600760405180606001604052806001600780549050611c6b9190613415565b815260200183815260200160008152509080600181540180825580915050600190039060005260206000209060030201600090919091909150600082015181600001556020820151816001019081611cc39190613849565b506040820151816002015550507fe83b2a43e7e82d975c8a0a6d2f045153c869e111136a34d1889ab7b598e396a360078054905082604051611d0692919061391b565b60405180910390a150565b60008054906101000a900473ffffffffffffffffffffffffffffffffffffffff1673ffffffffffffffffffffffffffffffffffffffff163373ffffffffffffffffffffffffffffffffffffffff1614611d9f576040517f08c379a0000000000000000000000000000000000000000000000000000000008152600401611d9690613282565b60405180910390fd5b6000801b600c5403611de6576040517f08c379a0000000000000000000000000000000000000000000000000000000008152600401611ddd90613997565b60405180910390fd5b8282600d9182611df7929190613a1d565b5080600e819055507fad9eb62a1200464e429cddb0ed9be8ce6d18df06b2e3f358ba7cb06ad06a2142838383604051611e3293929190613b1a565b60405180910390a1505050565b6000600a80549050905090565b60008054906101000a900473ffffffffffffffffffffffffffffffffffffffff1673ffffffffffffffffffffffffffffffffffffffff163373ffffffffffffffffffffffffffffffffffffffff1614611eda576040517f08c379a0000000000000000000000000000000000000000000000000000000008152600401611ed190613282565b60405180910390fd5b6040518060c001604052808581526020018481526020018381526020018281526020016040518060400160405280600681526020017f616374697665000000000000000000000000000000000000000000000000000081525081526020016000801b81525060016000820151816000019081611f569190613849565b506020820151816001019081611f6c9190613849565b506040820151816002019081611f829190613849565b506060820151816003019081611f989190613849565b506080820151816004019081611fae9190613849565b5060a082015181600501559050507f1594903932ed8f9b9f2f2bbc15a18c132591e2c4d3730ba56705aa661662f49c8484604051611fed929190613b4c565b60405180910390a150505050565b60008054906101000a900473ffffffffffffffffffffffffffffffffffffffff1673ffffffffffffffffffffffffffffffffffffffff163373ffffffffffffffffffffffffffffffffffffffff1614612089576040517f08c379a000000000000000000000000000000000000000000000000000000000815260040161208090613282565b60405180910390fd5b806001600501819055507f90004c04698bc3322499a575ed3752dd4abf33e0a7294c06a787a0fe01bea941816040516120c2919061299d565b60405180910390a150565b600880546120da90613073565b80601f016020809104026020016040519081016040528092919081815260200182805461210690613073565b80156121535780601f1061212857610100808354040283529160200191612153565b820191906000526020600020905b81548152906001019060200180831161213657829003601f168201915b505050505081565b600d805461216890613073565b80601f016020809104026020016040519081016040528092919081815260200182805461219490613073565b80156121e15780601f106121b6576101008083540402835291602001916121e1565b820191906000526020600020905b8154815290600101906020018083116121c457829003601f168201915b505050505081565b600e5481565b60008054906101000a900473ffffffffffffffffffffffffffffffffffffffff1673ffffffffffffffffffffffffffffffffffffffff163373ffffffffffffffffffffffffffffffffffffffff161461227d576040517f08c379a000000000000000000000000000000000000000000000000000000000815260040161227490613282565b60405180910390fd5b81816008918261228e929190613a1d565b507fcbe11c4a798e6399d2bdc5014d77dd62a510f9a2d3e8d17fa579793168e7b21982826040516122c0929190613b83565b60405180910390a15050565b60106020528060005260406000206000915054906101000a900460ff1681565b600a81815481106122fc57600080fd5b906000526020600020016000915090505481565b60126020528060005260406000206000915054906101000a900460ff1681565b60008054906101000a900473ffffffffffffffffffffffffffffffffffffffff1681565b60008054906101000a900473ffffffffffffffffffffffffffffffffffffffff1673ffffffffffffffffffffffffffffffffffffffff163373ffffffffffffffffffffffffffffffffffffffff16146123e2576040517f08c379a00000000000000000000000000000000000000000000000000000000081526004016123d990613282565b60405180910390fd5b600073ffffffffffffffffffffffffffffffffffffffff168173ffffffffffffffffffffffffffffffffffffffff1603612451576040517f08c379a000000000000000000000000000000000000000000000000000000000815260040161244890613bf3565b60405180910390fd5b80601360006101000a81548173ffffffffffffffffffffffffffffffffffffffff021916908373ffffffffffffffffffffffffffffffffffffffff16021790555050565b60008060003073ffffffffffffffffffffffffffffffffffffffff16878787876040516024016124c89493929190613e40565b6040516020818303038152906040527f43753b4d000000000000000000000000000000000000000000000000000000007bffffffffffffffffffffffffffffffffffffffffffffffffffffffff19166020820180517bffffffffffffffffffffffffffffffffffffffffffffffffffffffff83818316178352505050506040516125529190613ec3565b600060405180830381855afa9150503d806000811461258d576040519150601f19603f3d011682016040523d82523d6000602084013e612592565b606091505b50915091508115806125a5575060208151105b156125b5576000925050506125ce565b808060200190518101906125c99190613f06565b925050505b949350505050565b6000604051905090565b600080fd5b600080fd5b6000819050919050565b6125fd816125ea565b811461260857600080fd5b50565b60008135905061261a816125f4565b92915050565b60008060408385031215612637576126366125e0565b5b60006126458582860161260b565b92505060206126568582860161260b565b9150509250929050565b600060208284031215612676576126756125e0565b5b60006126848482850161260b565b91505092915050565b6000819050919050565b6126a08161268d565b82525050565b60006020820190506126bb6000830184612697565b92915050565b600080fd5b600080fd5b600080fd5b60008083601f8401126126e6576126e56126c1565b5b8235905067ffffffffffffffff811115612703576127026126c6565b5b60208301915083604082028301111561271f5761271e6126cb565b5b9250929050565b600080600080604085870312156127405761273f6125e0565b5b600085013567ffffffffffffffff81111561275e5761275d6125e5565b5b61276a878288016126d0565b9450945050602085013567ffffffffffffffff81111561278d5761278c6125e5565b5b612799878288016126d0565b925092505092959194509250565b60008115159050919050565b6127bc816127a7565b82525050565b60006020820190506127d760008301846127b3565b92915050565b600073ffffffffffffffffffffffffffffffffffffffff82169050919050565b6000612808826127dd565b9050919050565b612818816127fd565b82525050565b6000602082019050612833600083018461280f565b92915050565b600081905082602060060282011115612855576128546126cb565b5b92915050565b600060c08284031215612871576128706125e0565b5b600061287f84828501612839565b91505092915050565b6000819050826020600202820111156128a4576128a36126cb565b5b92915050565b6000819050826040600202820111156128c6576128c56126cb565b5b92915050565b6000819050826020600102820111156128e8576128e76126cb565b5b92915050565b6000806000806101208587031215612909576129086125e0565b5b600061291787828801612888565b9450506040612928878288016128aa565b93505060c061293987828801612888565b92505061010061294b878288016128cc565b91505092959194509250565b612960816125ea565b82525050565b600060608201905061297b6000830186612957565b6129886020830185612957565b6129956040830184612697565b949350505050565b60006020820190506129b26000830184612957565b92915050565b6129c18161268d565b81146129cc57600080fd5b50565b6000813590506129de816129b8565b92915050565b6000602082840312156129fa576129f96125e0565b5b6000612a08848285016129cf565b91505092915050565b600081519050919050565b600082825260208201905092915050565b60005b83811015612a4b578082015181840152602081019050612a30565b60008484015250505050565b6000601f19601f8301169050919050565b6000612a7382612a11565b612a7d8185612a1c565b9350612a8d818560208601612a2d565b612a9681612a57565b840191505092915050565b6000606082019050612ab66000830186612697565b8181036020830152612ac88185612a68565b9050612ad76040830184612697565b949350505050565b600081905082602060030282011115612afb57612afa6126cb565b5b92915050565b600060608284031215612b1757612b166125e0565b5b6000612b2584828501612adf565b91505092915050565b600060c0820190508181036000830152612b488189612a68565b90508181036020830152612b5c8188612a68565b90508181036040830152612b708187612a68565b90508181036060830152612b848186612a68565b90508181036080830152612b988185612a68565b9050612ba760a0830184612957565b979650505050505050565b612bbb816127fd565b8114612bc657600080fd5b50565b600081359050612bd881612bb2565b92915050565b600060208284031215612bf457612bf36125e0565b5b6000612c0284828501612bc9565b91505092915050565b600060e082019050612c20600083018a612697565b612c2d6020830189612697565b612c3a6040830188612697565b612c476060830187612697565b612c546080830186612697565b612c6160a0830185612697565b612c6e60c08301846127b3565b98975050505050505050565b600080fd5b7f4e487b7100000000000000000000000000000000000000000000000000000000600052604160045260246000fd5b612cb782612a57565b810181811067ffffffffffffffff82111715612cd657612cd5612c7f565b5b80604052505050565b6000612ce96125d6565b9050612cf58282612cae565b919050565b600067ffffffffffffffff821115612d1557612d14612c7f565b5b612d1e82612a57565b9050602081019050919050565b82818337600083830152505050565b6000612d4d612d4884612cfa565b612cdf565b905082815260208101848484011115612d6957612d68612c7a565b5b612d74848285612d2b565b509392505050565b600082601f830112612d9157612d906126c1565b5b8135612da1848260208601612d3a565b91505092915050565b600060208284031215612dc057612dbf6125e0565b5b600082013567ffffffffffffffff811115612dde57612ddd6125e5565b5b612dea84828501612d7c565b91505092915050565b60008083601f840112612e0957612e086126c1565b5b8235905067ffffffffffffffff811115612e2657612e256126c6565b5b602083019150836001820283011115612e4257612e416126cb565b5b9250929050565b600080600060408486031215612e6257612e616125e0565b5b600084013567ffffffffffffffff811115612e8057612e7f6125e5565b5b612e8c86828701612df3565b93509350506020612e9f8682870161260b565b9150509250925092565b60008060008060808587031215612ec357612ec26125e0565b5b600085013567ffffffffffffffff811115612ee157612ee06125e5565b5b612eed87828801612d7c565b945050602085013567ffffffffffffffff811115612f0e57612f0d6125e5565b5b612f1a87828801612d7c565b935050604085013567ffffffffffffffff811115612f3b57612f3a6125e5565b5b612f4787828801612d7c565b925050606085013567ffffffffffffffff811115612f6857612f676125e5565b5b612f7487828801612d7c565b91505092959194509250565b600081519050919050565b600082825260208201905092915050565b6000612fa782612f80565b612fb18185612f8b565b9350612fc1818560208601612a2d565b612fca81612a57565b840191505092915050565b60006020820190508181036000830152612fef8184612f9c565b905092915050565b6000806020838503121561300e5761300d6125e0565b5b600083013567ffffffffffffffff81111561302c5761302b6125e5565b5b61303885828601612df3565b92509250509250929050565b7f4e487b7100000000000000000000000000000000000000000000000000000000600052602260045260246000fd5b6000600282049050600182168061308b57607f821691505b60208210810361309e5761309d613044565b5b50919050565b600081905092915050565b60008190508160005260206000209050919050565b600081546130d181613073565b6130db81866130a4565b945060018216600081146130f6576001811461310b5761313e565b60ff198316865281151582028601935061313e565b613114856130af565b60005b8381101561313657815481890152600182019150602081019050613117565b838801955050505b50505092915050565b600061315382846130c4565b915081905092915050565b7f456c656374696f6e206e6f742061637469766500000000000000000000000000600082015250565b6000613194601383612a1c565b915061319f8261315e565b602082019050919050565b600060208201905081810360008301526131c381613187565b9050919050565b7f446f75626c6520766f7465206465746563746564000000000000000000000000600082015250565b6000613200601483612a1c565b915061320b826131ca565b602082019050919050565b6000602082019050818103600083015261322f816131f3565b9050919050565b7f4e6f7420617574686f72697a6564000000000000000000000000000000000000600082015250565b600061326c600e83612a1c565b915061327782613236565b602082019050919050565b6000602082019050818103600083015261329b8161325f565b9050919050565b7f416c7265616479207075626c6973686564000000000000000000000000000000600082015250565b60006132d8601183612a1c565b91506132e3826132a2565b602082019050919050565b60006020820190508181036000830152613307816132cb565b9050919050565b7f4e6f7420617574686f72697a6564202861676772656761746f72206f6e6c7929600082015250565b6000613344602083612a1c565b915061334f8261330e565b602082019050919050565b6000602082019050818103600083015261337381613337565b9050919050565b7f4c656e677468206d69736d617463680000000000000000000000000000000000600082015250565b60006133b0600f83612a1c565b91506133bb8261337a565b602082019050919050565b600060208201905081810360008301526133df816133a3565b9050919050565b7f4e487b7100000000000000000000000000000000000000000000000000000000600052601160045260246000fd5b60006134208261268d565b915061342b8361268d565b9250828201905080821115613443576134426133e6565b5b92915050565b7f4e487b7100000000000000000000000000000000000000000000000000000000600052603260045260246000fd5b82818337505050565b61348d60408383613478565b5050565b60006080820190506134a66000830185613481565b6134b36040830184613481565b9392505050565b60006134c58261268d565b91507fffffffffffffffffffffffffffffffffffffffffffffffffffffffffffffffff82036134f7576134f66133e6565b5b600182019050919050565b7f4e6f742074727573746565000000000000000000000000000000000000000000600082015250565b6000613538600b83612a1c565b915061354382613502565b602082019050919050565b600060208201905081810360008301526135678161352b565b9050919050565b7f50726f6f66206e6f742076657269666965640000000000000000000000000000600082015250565b60006135a4601283612a1c565b91506135af8261356e565b602082019050919050565b600060208201905081810360008301526135d381613597565b9050919050565b7f416c7265616479207375626d6974746564000000000000000000000000000000600082015250565b6000613610601183612a1c565b915061361b826135da565b602082019050919050565b6000602082019050818103600083015261363f81613603565b9050919050565b7f416c726561647920696e697469616c697a656400000000000000000000000000600082015250565b600061367c601383612a1c565b915061368782613646565b602082019050919050565b600060208201905081810360008301526136ab8161366f565b9050919050565b60006020601f8301049050919050565b600082821b905092915050565b6000600883026136ff7fffffffffffffffffffffffffffffffffffffffffffffffffffffffffffffffff826136c2565b61370986836136c2565b95508019841693508086168417925050509392505050565b6000819050919050565b600061374661374161373c8461268d565b613721565b61268d565b9050919050565b6000819050919050565b6137608361372b565b61377461376c8261374d565b8484546136cf565b825550505050565b600090565b61378961377c565b613794818484613757565b505050565b5b818110156137b8576137ad600082613781565b60018101905061379a565b5050565b601f8211156137fd576137ce816130af565b6137d7846136b2565b810160208510156137e6578190505b6137fa6137f2856136b2565b830182613799565b50505b505050565b600082821c905092915050565b600061382060001984600802613802565b1980831691505092915050565b6000613839838361380f565b9150826002028217905092915050565b61385282612a11565b67ffffffffffffffff81111561386b5761386a612c7f565b5b6138758254613073565b6138808282856137bc565b600060209050601f8311600181146138b357600084156138a1578287015190505b6138ab858261382d565b865550613913565b601f1984166138c1866130af565b60005b828110156138e9578489015182556001820191506020850194506020810190506138c4565b868310156139065784890151613902601f89168261380f565b8355505b6001600288020188555050505b505050505050565b60006040820190506139306000830185612697565b81810360208301526139428184612a68565b90509392505050565b7f686173684f6e436861696e206e6f742073657400000000000000000000000000600082015250565b6000613981601383612a1c565b915061398c8261394b565b602082019050919050565b600060208201905081810360008301526139b081613974565b9050919050565b600082905092915050565b60008190508160005260206000209050919050565b601f821115613a18576139e9816139c2565b6139f2846136b2565b81016020851015613a01578190505b613a15613a0d856136b2565b830182613799565b50505b505050565b613a2783836139b7565b67ffffffffffffffff811115613a4057613a3f612c7f565b5b613a4a8254613073565b613a558282856139d7565b6000601f831160018114613a845760008415613a72578287013590505b613a7c858261382d565b865550613ae4565b601f198416613a92866139c2565b60005b82811015613aba57848901358255600182019150602085019450602081019050613a95565b86831015613ad75784890135613ad3601f89168261380f565b8355505b6001600288020188555050505b50505050505050565b6000613af98385612f8b565b9350613b06838584612d2b565b613b0f83612a57565b840190509392505050565b60006040820190508181036000830152613b35818587613aed565b9050613b446020830184612957565b949350505050565b60006040820190508181036000830152613b668185612a68565b90508181036020830152613b7a8184612a68565b90509392505050565b60006020820190508181036000830152613b9e818486613aed565b90509392505050565b7f696e76616c69642061676772656761746f720000000000000000000000000000600082015250565b6000613bdd601283612a1c565b9150613be882613ba7565b602082019050919050565b60006020820190508181036000830152613c0c81613bd0565b9050919050565b600060029050919050565b600081905092915050565b6000819050919050565b613c3c8161268d565b82525050565b6000613c4e8383613c33565b60208301905092915050565b6000602082019050919050565b613c7081613c13565b613c7a8184613c1e565b9250613c8582613c29565b8060005b83811015613cb6578151613c9d8782613c42565b9650613ca883613c5a565b925050600181019050613c89565b505050505050565b600060029050919050565b600081905092915050565b6000819050919050565b600081905092915050565b613cf281613c13565b613cfc8184613cde565b9250613d0782613c29565b8060005b83811015613d38578151613d1f8782613c42565b9650613d2a83613c5a565b925050600181019050613d0b565b505050505050565b6000613d4c8383613ce9565b60408301905092915050565b6000602082019050919050565b613d6e81613cbe565b613d788184613cc9565b9250613d8382613cd4565b8060005b83811015613db4578151613d9b8782613d40565b9650613da683613d58565b925050600181019050613d87565b505050505050565b600060019050919050565b600081905092915050565b6000819050919050565b6000602082019050919050565b613df281613dbc565b613dfc8184613dc7565b9250613e0782613dd2565b8060005b83811015613e38578151613e1f8782613c42565b9650613e2a83613ddc565b925050600181019050613e0b565b505050505050565b600061012082019050613e566000830187613c67565b613e636040830186613d65565b613e7060c0830185613c67565b613e7e610100830184613de9565b95945050505050565b600081905092915050565b6000613e9d82612f80565b613ea78185613e87565b9350613eb7818560208601612a2d565b80840191505092915050565b6000613ecf8284613e92565b915081905092915050565b613ee3816127a7565b8114613eee57600080fd5b50565b600081519050613f0081613eda565b92915050565b600060208284031215613f1c57613f1b6125e0565b5b6000613f2a84828501613ef1565b9150509291505056fea2646970667358221220be2d82a38e822e47c84fc248251d8f2b1d45a678440bc620a032112c0b307ea064736f6c63430008140033",
  "linkReferences": {},
  "deployedLinkReferences": {}
}