{
  "_format": "hh-sol-artifact-1",
  "contractName": "OnchainHashVerifier",
  "sourceName": "contracts/VerifyCommit.sol",
  "abi": [
    {
      "anonymous": false,
      "inputs": [
        {
          "indexed": true,
          "internalType": "address",
          "name": "sender",
          "type": "address"
        },
        {
          "indexed": false,
          "internalType": "bool",
          "name": "isValid",
          "type": "bool"
        },
        {
          "indexed": false,
          "internalType": "bytes32",
          "name": "proofHash",
          "type": "bytes32"
        }
      ],
      "name": "ProofVerified",
      "type": "event"
    },
    {
      "inputs": [
        {
          "internalType": "uint256[2]",
          "name": "a",
          "type": "uint256[2]"
        },
        {
          "internalType": "uint256[2][2]",
          "name": "b",
          "type": "uint256[2][2]"
        },
        {
          "internalType": "uint256[2]",
          "name": "c",
          "type": "uint256[2]"
        },
        {
          "internalType": "uint256[1]",
          "name": "inputSignals",
          "type": "uint256[1]"
        }
      ],
      "name": "submitHashProof",
      "outputs": [
        {
          "internalType": "bool",
          "name": "",
          "type": "bool"
        }
      ],
      "stateMutability": "nonpayable",
      "type": "function"
    },
    {
      "inputs": [
        {
          "internalType": "uint256[2]",
          "name": "_pA",
          "type": "uint256[2]"
        },
        {
          "internalType": "uint256[2][2]",
          "name": "_pB",
          "type": "uint256[2][2]"
        },
        {
          "internalType": "uint256[2]",
          "name": "_pC",
          "type": "uint256[2]"
        },
        {
          "internalType": "uint256[1]",
          "name": "_pubSignals",
          "type": "uint256[1]"
        }
      ],
      "name": "verifyProof",
      "outputs": [
        {
          "internalType": "bool",
          "name": "",
          "type": "bool"
        }
      ],
      "stateMutability": "view",
      "type": "function"
    }
  ],
  "bytecode": "0x608060405234801561001057600080fd5b50610eb1806100206000396000f3fe608060405234801561001057600080fd5b50600436106100365760003560e01c806343753b4d1461003b578063e2f492111461006b575b600080fd5b6100556004803603810190610050919061089a565b61009b565b604051610062919061091e565b60405180910390f35b6100856004803603810190610080919061089a565b6104f6565b604051610092919061091e565b60405180910390f35b60006104c7565b7f30644e72e131a029b85045b68181585d2833e84879b9709143e1f593f000000181106100d3576000805260206000f35b50565b600060405183815284602082015285604082015260408160608360076107d05a03fa915081610109576000805260206000f35b825160408201526020830151606082015260408360808360066107d05a03fa915081610139576000805260206000f35b505050505050565b600060808601600087017e41a31eed71c446a9b6a347b8a090371fe3052c447975f2a3f8d0dfdb2acfb781527f033cb1ed3205d3b1f3fc8e2d9cc15336389220825c9160762c64f4a8ebd8388060208201526101e360008801357f23a0072f7c7969d20d04b085ec770dba4d927454bdcf588c2d7972ee6c1c1cdd7f17b14b0a8644c018ce76b32552186f076ed23caa3360f1b9728c11c179196b2e846100d6565b833582527f30644e72e131a029b85045b68181585d97816a916871ca8d3c208c16d87cfd4760208501357f30644e72e131a029b85045b68181585d97816a916871ca8d3c208c16d87cfd4703066020830152843560408301526020850135606083015260408501356080830152606085013560a08301527f0fa97dbe05c01604f78e309ff166a3d1ca5a169ad7e4c273978b2d12951b3aa860c08301527f1ce3d36ac75c22ca880a3589453dd56d74ebcd3dc0d02bbd68b34d5d7950ca2960e08301527f08854137860062e4ae212836201a5afcfe3f37123650b07b4ccbbe81528d77b16101008301527f061483df5d4504f9f4c4d0db42fc7ff28dca2e621cedbddef0fc1517ba3608686101208301527f234436eb026880fecd883256f20c9bf04145e8d2851134db03fb0750a0eaae3a6101408301527f0477051796d060fccce2dcb65437ad24c044e0ead79119f3eb26f1ac3ce97b7b610160830152600088015161018083015260206000018801516101a08301527f198e9393920d483a7260bfb731fb5d25f1aa493335a9e71297e485b7aef312c26101c08301527f1800deef121f1e76426a00665e5c4479674322d4f75edadd46debd5cd992f6ed6101e08301527f090689d0585ff075ec9e99ad690c3395bc4b313370b38ef355acdadcd122975b6102008301527f12c85ea5db8c6deb4aab71808dcb408fe3d1e7690c43d37b4ce6cc0166fa7daa610220830152853561024083015260208601356102608301527f198e9393920d483a7260bfb731fb5d25f1aa493335a9e71297e485b7aef312c26102808301527f1800deef121f1e76426a00665e5c4479674322d4f75edadd46debd5cd992f6ed6102a08301527f090689d0585ff075ec9e99ad690c3395bc4b313370b38ef355acdadcd122975b6102c08301527f12c85ea5db8c6deb4aab71808dcb408fe3d1e7690c43d37b4ce6cc0166fa7daa6102e08301526020826103008460086107d05a03fa82518116935050505095945050505050565b60405161038081016040526104df60008401356100a2565b6104ec818486888a610141565b8060005260206000f35b600080610619866002806020026040519081016040528092919082600260200280828437600081840152601f19601f82011690508083019250505050505086600280602002604051908101604052809291906000905b828210156105a0578382604002016002806020026040519081016040528092919082600260200280828437600081840152601f19601f8201169050808301925050505050508152602001906001019061054c565b50505050866002806020026040519081016040528092919082600260200280828437600081840152601f19601f820116905080830192505050505050866001806020026040519081016040528092919082600160200280828437600081840152601f19601f8201169050808301925050505050506106e9565b90508061065b576040517f08c379a000000000000000000000000000000000000000000000000000000000815260040161065290610996565b60405180910390fd5b6000868686866040516020016106749493929190610a9e565b6040516020818303038152906040528051906020012090503373ffffffffffffffffffffffffffffffffffffffff167fa4b608d5bc20cd098913e8867c35f42efe2212ec0182f845e1d8fc70a7eef01583836040516106d4929190610afe565b60405180910390a28192505050949350505050565b60008060003073ffffffffffffffffffffffffffffffffffffffff168787878760405160240161071c9493929190610d53565b6040516020818303038152906040527f43753b4d000000000000000000000000000000000000000000000000000000007bffffffffffffffffffffffffffffffffffffffffffffffffffffffff19166020820180517bffffffffffffffffffffffffffffffffffffffffffffffffffffffff83818316178352505050506040516107a69190610e0b565b600060405180830381855afa9150503d80600081146107e1576040519150601f19603f3d011682016040523d82523d6000602084013e6107e6565b606091505b50915091508115806107f9575060208151105b1561080957600092505050610822565b8080602001905181019061081d9190610e4e565b925050505b949350505050565b600080fd5b600080fd5b6000819050826020600202820111156108505761084f61082f565b5b92915050565b6000819050826040600202820111156108725761087161082f565b5b92915050565b6000819050826020600102820111156108945761089361082f565b5b92915050565b60008060008061012085870312156108b5576108b461082a565b5b60006108c387828801610834565b94505060406108d487828801610856565b93505060c06108e587828801610834565b9250506101006108f787828801610878565b91505092959194509250565b60008115159050919050565b61091881610903565b82525050565b6000602082019050610933600083018461090f565b92915050565b600082825260208201905092915050565b7f496e76616c69642070726f6f6600000000000000000000000000000000000000600082015250565b6000610980600d83610939565b915061098b8261094a565b602082019050919050565b600060208201905081810360008301526109af81610973565b9050919050565b82818337505050565b6109cb604083836109b6565b5050565b600060029050919050565b600081905092915050565b6000819050919050565b6109fb604083836109b6565b5050565b6000610a0b83836109ef565b60408301905092915050565b600082905092915050565b6000604082019050919050565b610a38816109cf565b610a4281846109da565b9250610a4d826109e5565b8060005b83811015610a8657610a638284610a17565b610a6d87826109ff565b9650610a7883610a22565b925050600181019050610a51565b505050505050565b610a9a602083836109b6565b5050565b600061012082019050610ab460008301876109bf565b610ac16040830186610a2f565b610ace60c08301856109bf565b610adc610100830184610a8e565b95945050505050565b6000819050919050565b610af881610ae5565b82525050565b6000604082019050610b13600083018561090f565b610b206020830184610aef565b9392505050565b600060029050919050565b600081905092915050565b6000819050919050565b6000819050919050565b610b5a81610b47565b82525050565b6000610b6c8383610b51565b60208301905092915050565b6000602082019050919050565b610b8e81610b27565b610b988184610b32565b9250610ba382610b3d565b8060005b83811015610bd4578151610bbb8782610b60565b9650610bc683610b78565b925050600181019050610ba7565b505050505050565b600060029050919050565b6000819050919050565b600081905092915050565b610c0581610b27565b610c0f8184610bf1565b9250610c1a82610b3d565b8060005b83811015610c4b578151610c328782610b60565b9650610c3d83610b78565b925050600181019050610c1e565b505050505050565b6000610c5f8383610bfc565b60408301905092915050565b6000602082019050919050565b610c8181610bdc565b610c8b81846109da565b9250610c9682610be7565b8060005b83811015610cc7578151610cae8782610c53565b9650610cb983610c6b565b925050600181019050610c9a565b505050505050565b600060019050919050565b600081905092915050565b6000819050919050565b6000602082019050919050565b610d0581610ccf565b610d0f8184610cda565b9250610d1a82610ce5565b8060005b83811015610d4b578151610d328782610b60565b9650610d3d83610cef565b925050600181019050610d1e565b505050505050565b600061012082019050610d696000830187610b85565b610d766040830186610c78565b610d8360c0830185610b85565b610d91610100830184610cfc565b95945050505050565b600081519050919050565b600081905092915050565b60005b83811015610dce578082015181840152602081019050610db3565b60008484015250505050565b6000610de582610d9a565b610def8185610da5565b9350610dff818560208601610db0565b80840191505092915050565b6000610e178284610dda565b915081905092915050565b610e2b81610903565b8114610e3657600080fd5b50565b600081519050610e4881610e22565b92915050565b600060208284031215610e6457610e6361082a565b5b6000610e7284828501610e39565b9150509291505056fea2646970667358221220475f637139381e85b58e5e25eef80dfc96b7759fd38bb425156fce1d6482c81d64736f6c63430008140033",
  "linkReferences": {},
  "deployedLinkReferences": {}
}